S014000065696E646F706472616368742E737265631B
S113000045C0000058C0000056C0000054C00000A5
S113001052C0000050C000004EC000004CC00000A0
S11300204AC0000048C0000046C0000044C00000B0
S113003042C0000040C000003EC000003CC00000C0
S11300403AC0000038C0000036C0000034C00000D0
S113005032C0000030C000002EC000002CC00000E0
S11300602AC0000028C0000026C0000024C00000F0
S113007022C0000020C000001EC000001CC0000000
S11300801AC0000018C0000016C0000011241FBED2
S1130090CFEFD0E1DEBFCDBF11E0A0E0B1E0E0ECF6
S11300A0F1E000E00BBF02C007900D92A430B1074D
S11300B0D9F77BD083C0A4CF807F886085BB8FECC9
S11300C097E00197F1F700C0000085B3877F85BBF7
S11300D08FEC97E00197F1F700C000000895982F86
S11300E0907F986095BBEFECF7E03197F1F700C093
S11300F0000095B3977F95BBEFECF7E03197F1F7EC
S113010000C000008295807F886085BB8FEC97E0FB
S11301100197F1F700C0000085B3877F85BBEFEC42
S1130120F7E03197F1F700C000000895982F907F11
S11301309C6095BBEFECF7E03197F1F700C000004D
S113014095B3977F95BBEFECF7E03197F1F700C0DB
S113015000008295807F8C6085BB8FEC97E00197CF
S1130160F1F700C0000085B3877F85BBEFECF7E0B3
S11301703197F1F700C00000089580E29DDF88E226
S1130180AEDF8FE0ACDF86E0AACF0895CF93DF9394
S1130190EC0102C0CBDF219688818111FBCFDF9176
S11301A0CF91089581E09BCF08958FEF84BB15BA5A
S11301B0E4DFF8DF80E091E0E9DFFFCFF894FFCFE0
S10701C0796F6F00E0
S9030000FC
