S014000065696E646F706472616368742E737265631B
S113000045C0000060C000005EC000005CC000008D
S11300105AC0000058C0000056C0000054C0000080
S113002052C0000050C000004EC000004CC0000090
S1130030C9C0000048C0000046C0000044C0000021
S113004042C0000040C000003EC000003CC00000B0
S11300503AC0000038C0000036C0000034C00000C0
S113006032C0000030C000002EC000002CC00000D0
S11300702AC0000028C0000026C0000024C00000E0
S113008022C0000020C000001EC0000011241FBEBA
S1130090CFEFD0E1DEBFCDBF11E0A0E0B1E0E0E4FE
S11300A0F4E000E00BBF02C007900D92A630B10748
S11300B0D9F721E0A6E0B1E001C01D92A830B20753
S11300C0E1F7B7D0BBC19CCF82EC87B986EE86B985
S11300D00895807F886085BB8FEC97E00197F1F7E6
S11300E000C0000085B3877F85BB8FEC97E0019744
S11300F0F1F700C000000895982F907F986095BB99
S1130100EFECF7E03197F1F700C0000095B3977F6B
S113011095BBEFECF7E03197F1F700C00000829552
S1130120807F886085BB8FEC97E00197F1F700C072
S1130130000085B3877F85BBEFECF7E03197F1F7DB
S113014000C000000895982F907F9C6095BBEFEC51
S1130150F7E03197F1F700C0000095B3977F95BBA6
S1130160EFECF7E03197F1F700C000008295807F53
S11301708C6085BB8FEC97E00197F1F700C000001D
S113018085B3877F85BBEFECF7E03197F1F700C0CB
S11301900000089580E29DDF88E2AEDF8FE0ACDFEF
S11301A086E0AACF0895CF93DF93EC0102C0CBDFA2
S11301B0219688818111FBCFDF91CF91089581E051
S11301C09BCF08951F920F920FB60F9211240BB676
S11301D00F922F933F934F935F936F937F938F93DC
S11301E09F93AF93BF93EF93FF93809106019091F8
S11301F007019AD080E091E0D6DF809106019091CA
S1130200070101969093070180930601FF91EF91F6
S1130210BF91AF919F918F917F916F915F914F911A
S11302203F912F910F900BBE0F900FBE0F901F9018
S113023018958FEF84BB15BAADDFC1DF82E091E082
S1130240B2DF81E087BB2ED062D0C1E009C080E07C
S113025038D08C2F32D080E030D080E03ED0CF5FD9
S1130260C530A8F3B8D0109261008FEF8ABB809399
S113027064002ADF84B18BBB85B18093650084E67A
S113028090E001D0F7CF20E030E008C0EFECF7E0D9
S11302903197F1F700C000002F5F3F4F281739074F
S11302A0ACF308958FEF87BB87B3877F87BB88B391
S11302B0816088BB82E58DB908958FB9779BFECFA5
S11302C0089598B321E030E002C0220F331F8A95CD
S11302D0E2F72095292328BB089598B321E030E064
S11302E002C0220F331F8A95E2F7292B28BB0895F9
S11302F0CF93DF93D82FC62F80E0E3DF8D2FDDDF90
S11303008C2FDBDF80E0E9DFDF91CF9108956FEF81
S113031089E0EEDF64E08AE0EBDF63E08BE0E8DFB6
S113032061E08CE0E5CF0895CF92DF92EF92FF92E7
S11303300F931F93CF93DF9399234CF4EE24FF2460
S1130340E81AF90A6894CC24C2F8D12C04C07C01C0
S1130350CC24CA94DC2C9C01275F3F4F2930310503
S113036030F08D599F4F8336910530F00AC0689460
S1130370CC24C1F8D12C05C00F2EF3E0CF2ED12C04
S1130380F02D00E117E2C5E0D0E011C0C701B801CB
S11303902ED0262F7C01C8016AE070E028D08B01A2
S11303A0622F8C2FA5DF8AE090E06DDF21971C1669
S11303B01D0664F3DD201CF06AE08C2D99DF88EEC5
S11303C093E061DFDF91CF911F910F91FF90EF9048
S11303D0DF90CF90089582E19AE79BBD8ABD1FBC50
S11303E08CE08EBD87B7806187BF7894089597FBB2
S11303F0072E16F4009406D077FD08D00BD007FC26
S113040005D03EF4909581959F4F08957095619520
S11304107F4F0895AA1BBB1B51E107C0AA1FBB1F36
S1130420A617B70710F0A61BB70B881F991F5A957C
S1130430A9F780959095BC01CD010895F894FFCF5C
S10904406500796F6F00F6
S9030000FC
