S014000065696E646F706472616368742E737265631B
S11300005EC000006FC1000077C0000075C0000032
S113001073C0000071C000006FC000006DC000001C
S11300206BC0000069C0000067C0000065C000002C
S113003012C1000061C000005FC000005DC000008C
S11300405BC0000059C0000057C0000055C000004C
S113005053C0000051C000004FC000004DC000005C
S11300604BC0000049C0000047C0000045C000006C
S113007043C0000041C000003FC000003DC000007C
S11300803BC0000039C0000037C0000049028502AF
S11300904C024F025202550258025B025E02610298
S11300A082026402820267026A026D0270027302B3
S11300B0760279027C028202820282027F02112489
S11300C01FBECFEFD0E1DEBFCDBF11E0A0E0B1E0B5
S11300D0E8EAFFE000E00BBF02C007900D92A032F7
S11300E0B107D9F721E0A0E2B1E001C01D92A83226
S11300F0B207E1F70DD156C783CF81E687B986EE03
S113010086B90895807F886085BB8FEC97E001975E
S1130110F1F700C0000085B3877F85BB8FEC97E0C3
S11301200197F1F700C000000895982F907F986020
S113013095BBEFECF7E03197F1F700C0000095B301
S1130140977F95BBEFECF7E03197F1F700C0000023
S11301508295807F886085BB8FEC97E00197F1F7EB
S113016000C0000085B3877F85BBEFECF7E03197D3
S1130170F1F700C000000895982F907F9C6095BB14
S1130180EFECF7E03197F1F700C0000095B3977FEB
S113019095BBEFECF7E03197F1F700C000008295D2
S11301A0807F8C6085BB8FEC97E00197F1F700C0EE
S11301B0000085B3877F85BBEFECF7E03197F1F75B
S11301C000C00000089580E29DDF88E2AEDF8FE08A
S11301D0ACDF86E0AACF0895CF93DF93EC0102C091
S11301E0CBDF219688818111FBCFDF91CF910895D8
S11301F00F931F93CF93DF93CDB7DEB760970FB6FE
S1130200F894DEBF0FBECDBF8E010F5F1F4F20E1FC
S1130210F80111922A95E9F79F938F9387E091E073
S11302209F938F931F930F93E2D3C801D5DF0F9051
S11302300F900F900F900F900F9060960FB6F89458
S1130240DEBF0FBECDBFDF91CF911F910F910895F7
S113025081E06BCF08951F920F920FB60F92112475
S11302600BB60F922F933F934F935F936F937F93AC
S11302708F939F93AF93BF93EF93FF9385B190E0D8
S1130280880F991F880F991F24B1229526952695CA
S11302902370822B002496958795079496958795CD
S11302A00794982F802DF0D180910601882321F0A6
S11302B081E090E076D103C08FEF9FEF72D1FF9180
S11302C0EF91BF91AF919F918F917F916F915F91CA
S11302D04F913F912F910F900BBE0F900FBE0F9037
S11302E01F9018951F920F920FB60F9211248F939F
S11302F080910601882319F01092060103C081E061
S1130300809306018F910F900FBE0F901F90189548
S11303108FEF84BB15BA57DF9BDF81E087BB6CD0BE
S1130320A0D0C1E009C080E076D08C2F70D080E0EE
S11303306ED080E07CD0CF5FC530A8F389E190E037
S11303402DD2EC018DE0EAE0F1E0DE0101900D92A6
S11303508A95E1F7CE011FD1109261008FEF8ABB1D
S1130360CCDE85B184B185D185B190E0880F991F29
S1130370880F991F24B12295269526952370822BE8
S11303809C01220F331F820F931F880F991F7CD16A
S113039081E082B9EAE6F0E080818360808389B7F6
S11303A0816089BF789485B18BBB52DFCE0114DFA5
S11303B083E090E012D087E191E00EDF83E090E0EB
S11303C00CD073D115DF83E090E007D08BE191E08E
S11303D003DF88EE93E001D0E6CF20E030E008C0F0
S11303E0EFECF7E03197F1F700C000002F5F3F4FCB
S11303F028173907ACF308958FEF87BB87B3877F3E
S113040087BB88B3816088BB82E58DB908958FB9B5
S1130410779BFECF089598B321E030E002C0220F0D
S1130420331F8A95E2F72095292328BB089598B3B2
S113043021E030E002C0220F331F8A95E2F7292B16
S113044028BB0895CF93DF93D82FC62F80E0E3DF36
S11304508D2FDDDF8C2FDBDF80E0E9DFDF91CF91B3
S113046008956FEF89E0EEDF64E08AE0EBDF63E09C
S11304708BE0E8DF61E08CE0E5CF089590E0AFD257
S11304808154910989319105E8F58A5B9F4FFC01FC
S113049046C187E790E008958EE490E008958DE3E7
S11304A090E008958FE490E0089587E490E0089543
S11304B08EE590E0089587E390E0089586E090E06B
S11304C008958CE390E008958EE090E0089585E12E
S11304D090E008958EE790E0089587E690E008950F
S11304E083E790E0089585E090E008958BE590E03F
S11304F008958FE090E008958EE390E008958BE3F3
S113050090E0089580E090E008958FE190E00895F0
S1130510CF93DF93D82FC62F60E089E093DF8D2F30
S1130520ADDF682F8C2F8EDFDF91CF910895EF928E
S1130530FF920F931F93CF93DF93EC0106C0EC0F50
S1130540FD1F80E290E091838083FE0101900020F2
S1130550E9F73197EC1BFD0BE430F10580F300E083
S113056010E06894EE24E2F8F12C0BC0FE01E00FD9
S1130570F11F6E2D8081CCDF0F5F1F4F81E0E81AE1
S1130580F1080430110594F3DF91CF911F910F917D
S1130590FF90EF9008959093210180932001C7CF9D
S11305A008950F931F93CF93DF9300D000D01F9231
S11305B0CDB7DEB70091200110912101F80101901F
S11305C00020E9F731979F01201B310B2F5F3F4F2C
S11305D0622F732F4091220150912301480F591F1C
S11305E0509323014093220155233CF4820F931F1F
S11305F0019790932301809322018091220190918D
S113060023015ED0FC0190932301809322012150A9
S11306103109B90155D0D801A80FB91F8C9189832C
S1130620CF010196B9014CD0D801A80FB91F8C9104
S11306308A83CF010296B90143D0D801A80FB91F0C
S11306408C918B83CF010396B9013AD0F801E80F5E
S1130650F91F80818C831D82CE01019668DF0F9083
S11306600F900F900F900F90DF91CF911F910F91EA
S1130670089582E19AE79BBD8ABD1FBC8CE08EBDC4
S113068087B7806187BF08959C01205F384D203172
S113069037422CF48FEF9FEF9BBD8ABD03C0985D5A
S11306A09BBD8ABD1DBC1CBC08952AB53BB540E06A
S11306B050E064EB74EC84E090E015D0C901089537
S11306C097FB072E16F4009406D077FD08D030D09F
S11306D007FC05D03EF4909581959F4F0895709541
S11306E061957F4F0895052E97FB16F400940FD063
S11306F057FD05D031D007FC02D046F408C0509510
S11307004095309521953F4F4F4F5F4F08959095F9
S11307108095709561957F4F8F4F9F4F0895EE0F91
S1130720FF1F0024001C0BBE0790F691E02D0994D6
S1130730AA1BBB1B51E107C0AA1FBB1FA617B70703
S113074010F0A61BB70B881F991F5A95A9F780951F
S11307509095BC01CD010895A1E21A2EAA1BBB1BE2
S1130760FD010DC0AA1FBB1FEE1FFF1FA217B30779
S1130770E407F50720F0A21BB30BE40BF50B661F8F
S1130780771F881F991F1A9469F760957095809553
S113079090959B01AC01BD01CF0108950F931F9368
S11307A0CF93DF938230910510F482E090E0E091E2
S11307B02601F091270120E030E0A0E0B0E030977E
S11307C019F1408151810281138148175907C8F0FA
S11307D08417950769F4109731F012960C931297C9
S11307E013961C9327C0009326011093270122C05F
S11307F02115310519F04217530718F49A01BD0168
S1130800EF01DF01F801DBCF21153105F9F0281BD9
S1130810390B2430310580F48A819B81611571057F
S113082021F0FB019383828304C09093270180937A
S11308302601FE01329644C0FE01E20FF31F8193AC
S1130840919322503109398328833AC0209124019D
S113085030912501232B41F42091020130910301B1
S1130860309325012093240120910001309101014E
S11308702115310541F42DB73EB740910401509143
S11308800501241B350BE0912401F0912501E217A9
S1130890F307A0F42E1B3F0B2817390778F0AC019F
S11308A04E5F5F4F2417350748F04E0F5F1F50937C
S11308B02501409324018193919302C0E0E0F0E08C
S11308C0CF01DF91CF911F910F910895CF93DF93C3
S11308D0009709F481C0FC01329713821282A0911F
S11308E02601B0912701109781F420813181820F74
S11308F0931F20912401309125012817390751F5C0
S1130900F0932501E093240167C0ED0120E030E07D
S1130910CE17DF0740F44A815B819E0141155105E2
S1130920F1F0EA01F5CFD383C28340815181840F72
S1130930951FC817D90759F488819981840F951F89
S11309400296918380838A819B819383828321157C
S1130950310529F4F0932701E09326013DC0E90114
S1130960FB83EA8349915991C40FD51FEC17FD0706
S113097061F480819181840F951F0296E901998326
S11309808883828193819B838A83E0E0F0E01296DE
S11309908D919C911397009719F0FD01DC01F7CF1D
S11309A08D919C9111979D012E5F3F4F820F931F54
S11309B020912401309125012817390769F43097D3
S11309C029F4109227011092260102C01382128288
S11309D0B0932501A0932401DF91CF910895911143
S11309E0089581568A5108F48052855808950F93CA
S11309F01F93CF93DF93CDB7DEB72E970FB6F8943E
S1130A00DEBF0FBECDBF0D891E8986E08C831A839D
S1130A1009838FEF9FE79E838D83AE01475E5F4F0F
S1130A206F89788DCE01019610D0EF81F885E00FA3
S1130A30F11F10822E960FB6F894DEBF0FBECDBF05
S1130A40DF91CF911F910F9108952F923F924F9272
S1130A505F926F927F928F929F92AF92BF92CF924A
S1130A60DF92EF92FF920F931F93CF93DF93CDB753
S1130A70DEB72B970FB6F894DEBF0FBECDBF6C0167
S1130A807B018A01FC0117821682838181FFBFC129
S1130A90CE0101963C01F6019381F70193FD859106
S1130AA093FF81917F01882309F4ADC1853239F424
S1130AB093FD859193FF81917F01853221F4B601E5
S1130AC090E0D6D1E8CF912C212C312CFFE1F31505
S1130AD0D8F08B3279F038F4803279F08332A1F493
S1130AE0232D20611DC08D3261F0803369F4232DE4
S1130AF0216016C0832D8260382EE32DE4603E2EE3
S1130B002AC0F32DF8601DC037FC2DC020ED280F3E
S1130B102A3040F08E32B9F436FC75C1232D20649E
S1130B20322E19C036FE06C08AE0989E200D11248C
S1130B30922E11C0EAE02E9E200D1124222EF32DB8
S1130B40F0623F2E08C08C3621F4832D8068382E45
S1130B5002C0883641F4F70193FD859193FF81919A
S1130B607F018111B3CF982F9F7D9554933028F442
S1130B700C5F1F4F9FE399830DC0833631F0833799
S1130B8071F0833509F055C020C0F8018081898354
S1130B900E5F1F4F88248394912C530112C02801A7
S1130BA0F2E04F0E511CF801A080B18036FE03C064
S1130BB0692D70E002C06FEF7FEFC5014ED14C018B
S1130BC08201F32DFF773F2E15C0280122E0420E4B
S1130BD0511CF801A080B18036FE03C0692D70E07D
S1130BE002C06FEF7FEFC5012DD14C01F32DF068EA
S1130BF03F2E820133FC19C0822D90E0881699069D
S1130C00A0F4B60180E290E033D12A94F5CFF50147
S1130C1037FC859137FE81915F01B60190E028D1C0
S1130C2021102A9421E0821A91088114910479F701
S1130C30E1C0843611F0893639F5F80137FE07C072
S1130C4060817181828193810C5F1F4F08C0608134
S1130C507181072E000C880B990B0E5F1F4FF32D2B
S1130C60FF763F2E97FF09C090958095709561950A
S1130C707F4F8F4F9F4FF0683F2E2AE030E0A30153
S1130C8033D1882E861844C0853731F4232D2F7E26
S1130C90B22E2AE030E025C0932D997FB92E8F36ED
S1130CA0C1F018F4883579F0AEC0803719F0883770
S1130CB021F0A9C0E92FE061BE2EB4FE0DC0FB2DCA
S1130CC0F460BF2E09C034FE0AC0292F2660B22E5C
S1130CD006C028E030E005C020E130E002C020E199
S1130CE032E0F801B7FE07C060817181828193818F
S1130CF00C5F1F4F06C06081718180E090E00E5F41
S1130D001F4FA301F1D0882E8618FB2DFF773F2EAD
S1130D1036FE0DC0232D2E7FA22E891458F434FEE6
S1130D200BC032FC09C0832D8E7EA82E05C0B82CC2
S1130D30A32C03C0B82C01C0B92CA4FE0FC0FE0123
S1130D40E80DF11D8081803321F49A2D997EA92E1E
S1130D5009C0A2FE06C0B394B39404C08A2D867859
S1130D6009F0B394A3FC10C0A0FE06C0B21480F432
S1130D70280C922C9B180DC0B21458F4B60180E2D2
S1130D8090E076D0B394F8CFB21418F42B1802C0C4
S1130D90982C212CA4FE0FC0B60180E390E068D00B
S1130DA0A2FE16C0A1FC03C088E790E002C088E55B
S1130DB090E0B6010CC08A2D867851F0A1FE02C0E5
S1130DC08BE201C080E2A7FC8DE2B60190E050D036
S1130DD0891430F4B60180E390E04AD09A94F8CFB5
S1130DE08A94F301E80DF11D8081B60190E040D0B2
S1130DF08110F6CF222009F44ECEB60180E290E0B5
S1130E0037D02A94F7CFF6018681978102C08FEFFD
S1130E109FEF2B960FB6F894DEBF0FBECDBFDF91C8
S1130E20CF911F910F91FF90EF90DF90CF90BF90E3
S1130E30AF909F908F907F906F905F904F903F9076
S1130E402F900895FC010590615070400110D8F76F
S1130E50809590958E0F9F1F0895FC0161507040FE
S1130E6001900110D8F7809590958E0F9F1F0895DB
S1130E700F931F93CF93DF93FB01238121FD03C0C5
S1130E808FEF9FEF2CC022FF16C04681578124812B
S1130E9035814217530744F4A081B1819D012F5F2E
S1130EA03F4F318320838C93268137812F5F3F4FBF
S1130EB03783268314C08B01EC01FB010084F18588
S1130EC0E02D0995892BE1F6D80116968D919C9118
S1130ED01797019617969C938E931697CE01DF91E0
S1130EE0CF911F910F910895FA01AA27283051F14B
S1130EF0203181F1E8946F936E7F6E5F7F4F8F4F47
S1130F009F4FAF4FB1E03ED0B4E03CD0670F781FA5
S1130F10891F9A1FA11D680F791F8A1F911DA11D8A
S1130F206A0F711D811D911DA11D20D009F46894C3
S1130F303F912AE0269F11243019305D3193DEF66B
S1130F40CF010895462F4770405D4193B3E00FD021
S1130F50C9F7F6CF462F4F70405D4A3318F0495D0C
S1130F6031FD4052419302D0A9F7EACFB4E0A695EF
S1130F709795879577956795BA95C9F70097610511
S1130F80710508959B01AC010A2E06945795479567
S1130F9037952795BA95C9F7620F731F841F951F5C
S10B0FA0A01D0895F894FFCF91
S1130FA8000028012000012575006C616E676572D8
S1130FB865207465787400202D200020487A00008C
S9030000FC
