S014000065696E646F706472616368742E737265631B
S11300005EC000006FC1000077C0000075C0000032
S113001073C0000071C000006FC000006DC000001C
S11300206BC0000069C0000067C0000065C000002C
S113003012C1000061C000005FC000005DC000008C
S11300405BC0000059C0000057C0000055C000004C
S113005053C0000051C000004FC000004DC000005C
S11300604BC0000049C0000047C0000045C000006C
S113007043C0000041C000003FC000003DC000007C
S11300803BC0000039C0000037C000003F027B02C3
S11300904202450248024B024E02510254025702E8
S11300A078025A0278025D02600263026602690203
S11300B06C026F02720278027802780275021124CF
S11300C01FBECFEFD0E1DEBFCDBF11E0A0E0B1E0B5
S11300D0E2E6FDE000E00BBF02C007900D92AC31F8
S11300E0B107D9F721E0ACE1B1E001C01D92A03223
S11300F0B207E1F70DD133C683CF81E687B986EE27
S113010086B90895807F886085BB8FEC97E001975E
S1130110F1F700C0000085B3877F85BB8FEC97E0C3
S11301200197F1F700C000000895982F907F986020
S113013095BBEFECF7E03197F1F700C0000095B301
S1130140977F95BBEFECF7E03197F1F700C0000023
S11301508295807F886085BB8FEC97E00197F1F7EB
S113016000C0000085B3877F85BBEFECF7E03197D3
S1130170F1F700C000000895982F907F9C6095BB14
S1130180EFECF7E03197F1F700C0000095B3977FEB
S113019095BBEFECF7E03197F1F700C000008295D2
S11301A0807F8C6085BB8FEC97E00197F1F700C0EE
S11301B0000085B3877F85BBEFECF7E03197F1F75B
S11301C000C00000089580E29DDF88E2AEDF8FE08A
S11301D0ACDF86E0AACF0895CF93DF93EC0102C091
S11301E0CBDF219688818111FBCFDF91CF910895D8
S11301F00F931F93CF93DF93CDB7DEB760970FB6FE
S1130200F894DEBF0FBECDBF8E010F5F1F4F20E1FC
S1130210F80111922A95E9F79F938F9381E091E079
S11302209F938F931F930F93BFD2C801D5DF0F9075
S11302300F900F900F900F900F9060960FB6F89458
S1130240DEBF0FBECDBFDF91CF911F910F910895F7
S113025081E06BCF08951F920F920FB60F92112475
S11302600BB60F922F933F934F935F936F937F93AC
S11302708F939F93AF93BF93EF93FF9385B190E0D8
S1130280880F991F880F991F24B1229526952695CA
S11302902370822B002496958795079496958795CD
S11302A00794982F802DE3D180910001882321F0B9
S11302B081E090E069D103C08FEF9FEF65D1FF919A
S11302C0EF91BF91AF919F918F917F916F915F91CA
S11302D04F913F912F910F900BBE0F900FBE0F9037
S11302E01F9018951F920F920FB60F9211248F939F
S11302F080910001882319F01092000103C081E06D
S1130300809300018F910F900FBE0F901F9018954E
S11303108FEF84BB15BA57DF9BDF81E087BB62D0C8
S113032096D0C1E009C080E06CD08C2F66D080E00C
S113033064D080E072D0CF5FC530A8F384E091E050
S11303401DD1109261008FEF8ABBD7DE85B184B1D5
S113035083D185B190E0880F991F880F991F24B12C
S11303602295269526952370822B9C01220F331FFC
S1130370820F931F880F991F7AD181E082B9EAE630
S1130380F0E080818360808389B7816089BF78943D
S113039085B18BBB5DDF84E091E01EDF83E090E0FC
S11303A012D084E191E018DF83E090E00CD070D1AA
S11303B01FDF83E090E007D088E191E00DDF88EE55
S11303C093E001D0E5CF20E030E008C0EFECF7E0A7
S11303D03197F1F700C000002F5F3F4F281739070E
S11303E0ACF308958FEF87BB87B3877F87BB88B350
S11303F0816088BB82E58DB908958FB9779BFECF64
S1130400089598B321E030E002C0220F331F8A958B
S1130410E2F72095292328BB089598B321E030E022
S113042002C0220F331F8A95E2F7292B28BB0895B7
S1130430CF93DF93D82FC62F80E0E3DF8D2FDDDF4E
S11304408C2FDBDF80E0E9DFDF91CF9108956FEF40
S113045089E0EEDF64E08AE0EBDF63E08BE0E8DF75
S113046061E08CE0E5CF089590E08BD1815491094F
S113047089319105E8F58A5B9F4FFC0143C187E709
S113048090E008958EE490E008958DE390E008955F
S11304908FE490E0089587E490E008958EE590E07D
S11304A0089587E390E0089586E090E008958CE352
S11304B090E008958EE090E0089585E190E008953D
S11304C08EE790E0089587E690E0089583E790E052
S11304D0089585E090E008958BE590E008958FE01D
S11304E090E008958EE390E008958BE390E0089502
S11304F080E090E008958FE190E00895CF93DF933A
S1130500D82FC62F60E089E093DF8D2FADDF682FF1
S11305108C2F8EDFDF91CF910895EF92FF920F938E
S11305201F93CF93DF93EC0104C060E270E0CE012F
S113053030D1FE0101900020E9F73197EC1BFD0B4F
S1130540349798F300E010E06894EE24E2F8F12C7C
S11305500BC0FE01E00FF11F6E2D8081CFDF0F5F16
S11305601F4F81E0E81AF1080430110594F3DF917C
S1130570CF911F910F91FF90EF90089590931D01DB
S113058080931C01CACF08950F931F93CF93DF93D9
S113059000D000D01F92CDB7DEB700911C0110919E
S11305A01D01F80101900020E9F731979F01201BFC
S11305B0310B2F5F3F4F622F732F40911E015091DB
S11305C01F01480F591F50931F0140931E015523CB
S11305D03CF4820F931F019790931F0180931E0197
S11305E080911E0190911F015ED0FC0190931F0128
S11305F080931E0121503109B90155D0D801A80FAB
S1130600B91F8C918983CF010196B9014CD0D801CF
S1130610A80FB91F8C918A83CF010296B90143D0E8
S1130620D801A80FB91F8C918B83CF010396B90110
S11306303AD0F801E80FF91F80818C831D82CE0126
S113064001966BDF0F900F900F900F900F90DF913A
S1130650CF911F910F91089582E19AE79BBD8ABDC6
S11306601FBC8CE08EBD87B7806187BF08959C0155
S1130670205F384D203137422CF48FEF9FEF9BBD24
S11306808ABD03C0985D9BBD8ABD1DBC1CBC08957A
S11306902AB53BB540E050E064EB74EC84E090E0B4
S11306A015D0C901089597FB072E16F4009406D0BF
S11306B077FD08D030D007FC05D03EF490958195A5
S11306C09F4F0895709561957F4F0895052E97FB70
S11306D016F400940FD057FD05D031D007FC02D09A
S11306E046F408C050954095309521953F4F4F4FA3
S11306F05F4F089590958095709561957F4F8F4FCA
S11307009F4F0895EE0FFF1F0024001C0BBE07909F
S1130710F691E02D0994AA1BBB1B51E107C0AA1F47
S1130720BB1FA617B70710F0A61BB70B881F991F8E
S11307305A95A9F780959095BC01CD010895A1E241
S11307401A2EAA1BBB1BFD010DC0AA1FBB1FEE1F47
S1130750FF1FA217B307E407F50720F0A21BB30B92
S1130760E40BF50B661F771F881F991F1A9469F70E
S113077060957095809590959B01AC01BD01CF016A
S113078008959111089581568A5108F4805285582C
S11307900895FB01DC010D900020E9F71197019009
S11307A00D920020E1F708950F931F93CF93DF93E9
S11307B0CDB7DEB72E970FB6F894DEBF0FBECDBF10
S11307C00D891E8986E08C831A8309838FEF9FE746
S11307D09E838D83AE01475E5F4F6F89788DCE0116
S11307E0019610D0EF81F885E00FF11F10822E964C
S11307F00FB6F894DEBF0FBECDBFDF91CF911F912E
S11308000F9108952F923F924F925F926F927F9231
S11308108F929F92AF92BF92CF92DF92EF92FF920C
S11308200F931F93CF93DF93CDB7DEB72B970FB6FC
S1130830F894DEBF0FBECDBF6C017B018A01FC01C1
S113084017821682838181FFBFC1CE0101963C01CC
S1130850F6019381F70193FD859193FF81917F01C7
S1130860882309F4ADC1853239F493FD859193FF52
S113087081917F01853221F4B60190E0D6D1E8CF91
S1130880912C212C312CFFE1F315D8F08B3279F027
S113089038F4803279F08332A1F4232D20611DC015
S11308A08D3261F0803369F4232D216016C0832DCD
S11308B08260382EE32DE4603E2E2AC0F32DF860CA
S11308C01DC037FC2DC020ED280F2A3040F08E3299
S11308D0B9F436FC75C1232D2064322E19C036FEBE
S11308E006C08AE0989E200D1124922E11C0EAE0E1
S11308F02E9E200D1124222EF32DF0623F2E08C0CF
S11309008C3621F4832D8068382E02C0883641F459
S1130910F70193FD859193FF81917F018111B3CFFD
S1130920982F9F7D9554933028F40C5F1F4F9FE3BD
S113093099830DC0833631F0833771F0833509F024
S113094055C020C0F801808189830E5F1F4F882421
S11309508394912C530112C02801F2E04F0E511CD4
S1130960F801A080B18036FE03C0692D70E002C09A
S11309706FEF7FEFC5014ED14C018201F32DFF775C
S11309803F2E15C0280122E0420E511CF801A08020
S1130990B18036FE03C0692D70E002C06FEF7FEFB7
S11309A0C5012DD14C01F32DF0683F2E820133FC9B
S11309B019C0822D90E088169906A0F4B60180E251
S11309C090E033D12A94F5CFF50137FC859137FEB9
S11309D081915F01B60190E028D121102A9421E091
S11309E0821A91088114910479F7E1C0843611F0D8
S11309F0893639F5F80137FE07C06081718182813B
S1130A0093810C5F1F4F08C060817181072E000C19
S1130A10880B990B0E5F1F4FF32DFF763F2E97FF28
S1130A2009C090958095709561957F4F8F4F9F4F2A
S1130A30F0683F2E2AE030E0A30133D1882E8618D7
S1130A4044C0853731F4232D2F7EB22E2AE030E0C6
S1130A5025C0932D997FB92E8F36C1F018F48835AF
S1130A6079F0AEC0803719F0883721F0A9C0E92F9A
S1130A70E061BE2EB4FE0DC0FB2DF460BF2E09C094
S1130A8034FE0AC0292F2660B22E06C028E030E0CA
S1130A9005C020E130E002C020E132E0F801B7FEF9
S1130AA007C060817181828193810C5F1F4F06C0F2
S1130AB06081718180E090E00E5F1F4FA301F1D04F
S1130AC0882E8618FB2DFF773F2E36FE0DC0232D72
S1130AD02E7FA22E891458F434FE0BC032FC09C0B8
S1130AE0832D8E7EA82E05C0B82CA32C03C0B82C51
S1130AF001C0B92CA4FE0FC0FE01E80DF11D8081D8
S1130B00803321F49A2D997EA92E09C0A2FE06C035
S1130B10B394B39404C08A2D867809F0B394A3FCEB
S1130B2010C0A0FE06C0B21480F4280C922C9B18AE
S1130B300DC0B21458F4B60180E290E076D0B394BC
S1130B40F8CFB21418F42B1802C0982C212CA4FE50
S1130B500FC0B60180E390E068D0A2FE16C0A1FCED
S1130B6003C088E790E002C088E590E0B6010CC0BD
S1130B708A2D867851F0A1FE02C08BE201C080E28A
S1130B80A7FC8DE2B60190E050D0891430F4B60190
S1130B9080E390E04AD09A94F8CF8A94F301E80D68
S1130BA0F11D8081B60190E040D08110F6CF222063
S1130BB009F44ECEB60180E290E037D02A94F7CF04
S1130BC0F6018681978102C08FEF9FEF2B960FB6B7
S1130BD0F894DEBF0FBECDBFDF91CF911F910F916F
S1130BE0FF90EF90DF90CF90BF90AF909F908F9049
S1130BF07F906F905F904F903F902F900895FC01ED
S1130C000590615070400110D8F7809590958E0F33
S1130C109F1F0895FC016150704001900110D8F7A6
S1130C20809590958E0F9F1F08950F931F93CF93D8
S1130C30DF93FB01238121FD03C08FEF9FEF2CC0C5
S1130C4022FF16C0468157812481358142175307FC
S1130C5044F4A081B1819D012F5F3F4F31832083F4
S1130C608C93268137812F5F3F4F3783268314C0AF
S1130C708B01EC01FB010084F185E02D0995892BA2
S1130C80E1F6D80116968D919C91179701961796C7
S1130C909C938E931697CE01DF91CF911F910F9164
S1130CA00895FA01AA27283051F1203181F1E894FE
S1130CB06F936E7F6E5F7F4F8F4F9F4FAF4FB1E04B
S1130CC03ED0B4E03CD0670F781F891F9A1FA11D46
S1130CD0680F791F8A1F911DA11D6A0F711D811D47
S1130CE0911DA11D20D009F468943F912AE0269F0C
S1130CF011243019305D3193DEF6CF010895462F6B
S1130D004770405D4193B3E00FD0C9F7F6CF462F4B
S1130D104F70405D4A3318F0495D31FD40524193B4
S1130D2002D0A9F7EACFB4E0A69597958795779571
S1130D306795BA95C9F700976105710508959B01F8
S1130D40AC010A2E06945795479537952795BA9581
S1130D50C9F7620F731F841F951FA01D0895F8948F
S1050D60FFCFBF
S1130D620125750068616C6C6F2069656465726544
S10F0D72656E2E00202D200020487A0021
S9030000FC
